S0160000476363415652385F766D6C6162312E737265633E
S113000012C019C018C017C016C015C014C013C040
S113001012C011C010C00FC00EC00DC00CC00BC068
S11300200AC009C008C011241FBECFE5D4E0DEBF5A
S1130030CDBF27D034C1E4CF14BA8FEF87BB81BBC7
S113004008956AE070E004D190E1699F800D112465
S113005088BB0895CF93DF93EC011816190674F446
S1130060CE01EFDF2FE38DE093E0215080409040FC
S1130070E1F700C000002197209791F7DF91CF911D
S11300800895CF93DF9300D01F92CDB7DEB7D4DFAE
S11300900F2EF5E0AF2EF02DB12C0F2EF5E0CF2E64
S11300A0F02DD12C0F2EF1E34F2EF02D0F2EF5E075
S11300B06F2EF02D512C77247A940F2EF0E38F2E8F
S11300C0F02D0F2EFBE09F2EF02D6982252C0F2E94
S11300D0F2E33F2EF02D42BA862D952DB2DF21E0BA
S11300E02A831B82E62CF52C83B38F70E9F303B3C8
S11300F00F7010E083B38F70E9F70130110569F4D4
S11301003EE1E316F10421F04FEFE41AF40A02C0D1
S1130110E980F22CC70195DF1EC002301105A1F45D
S113012055E0E516F10421F081E0E81AF10805C074
S11301300F2EFEE1EF2EF02DF12CC70182DF3A8164
S11301402B819C2D8D2D0FC00430110521F432BA62
S1130150CE2CDF2C11C00830110509F470C03A818F
S11301602B819C2D8D2DEA81FB81EF2B29F03A8385
S11301702B83C92ED82EB8CF862D952D62DF01E0B2
S113018010E0E62CF52C83B38F70E9F383B38F7002
S1130190282F30E03B832A8383B38F70E9F74A81A9
S11301A05B814130510569F45EE1E516F10421F00B
S11301B08FEFE81AF80A02C0E980F22CC70141DF88
S11301C021C0EA81FB813297A1F4F5E0EF16F10436
S11301D021F021E0E21AF10805C00F2EFEE1EF2E16
S11301E0F02DF12CC7012DDF802F912F2A2D3B2DCF
S11301F02AC04A815B814430510521F442BAAE2CB5
S1130200BF2C09C08A819B81089701F1802F912F0F
S11302102A2D3B2D18C078BA05C0082F192FA22EFD
S1130220B32EB1CF82BA8C2D9D2D14DF92BA8A2DB4
S11302309B2D10DF83B38F7009F04DCFF3CF862D44
S1130240952DFFDE03C0012B41F7E5CF78BA43CFEC
S113025097FB072E16F4009406D077FD08D00BD038
S113026007FC05D03EF4909581959F4F08957095B5
S113027061957F4F0895AA1BBB1B51E107C0AA1FBC
S1130280BB1FA617B70710F0A61BB70B881F991F33
S11302905A95A9F780959095BC01CD010895F894DD
S10502A0FFCF8A
S9030000FC
